:1000000002000390036B30B60575F0FF800375F0B6
:1000100000C2B3C282C2B7E4931202CC1202E660FD
:1000200003A380F320B33A90037FE4931202D91222
:1000300002E66003A380F37540007541007542003D
:10004000754300754400754500A845A944AA43AB13
:1000500042AC41AD401202E61202E62087FD0201E9
:1000600070900350E4931202D91202E66003A38059
:10007000F390037174C51202CCE4931202D974CACE
:100080001202CCE4931202D9E474C251CC51E612AC
:1000900002621202D91202E6540FF540E474C35111
:1000A000CC51E61202621202D91202E6540FF54157
:1000B000E474C751CC51E61202621202D91202E670
:1000C000540FF542E474C851CC51E6120262120298
:1000D000D91202E6540FF543E474CC51CC51E61228
:1000E00002621202D91202E6540FF544E474CD51B3
:1000F000CC51E61202621202D91202E6540FF54503
:10010000800630B3FD020003A845A944AA43AB42D0
:10011000AC41AD401202E61202E6740151CC51E648
:10012000748051CC51E690035EE4931202D912021E
:10013000E66003A380F320B3052087C680329003D6
:100140007E74CE1202CCE4931202D9E4E5F0600290
:10015000800F90037C74CD1202CCE4931202D980FC
:100160000F90037D74CD1202CCE4931202D980006B
:1001700090037174C31202CCE4931202D9900371FC
:1001800074C81202CCE4931202D990037274C012A4
:1001900002CC1202E6ED931202D91202E674C112E9
:1001A00002CC1202E6EC931202D91202E674C512D6
:1001B00002CC1202E6EB931202D91202E674C612C6
:1001C00002CC1202E6EA931202D91202E674CA12B3
:1001D00002CC1202E6E9931202D91202E674CB12A3
:1001E00002CC1202E6E8931202D912030430B70BD4
:1001F00074011202CC1202E602000308B80A208041
:1002000000780009B90618800079000ABA0A10803F
:10021000007A000BBB060880007B000C02022B0258
:1002200001367C007D008000020136BD0102801194
:10023000BC0A0280030201367C000DBD01210201CF
:1002400036BC020DE4E5F0F4F5F0D282120304C2EC
:1002500082BC030280030201367C017D0080000223
:100260000136740FF5A075A00FE5A0540FB40FF67A
:1002700051E6E5A0540FB40F0280F551E6E5A05415
:100280000FB40F0280EA75A0EFE5A0540FB40F2160
:1002900075A0DFE5A0540FB40F1C75A07FE5A05436
:1002A0000FB40F1775A0BFE5A0540FB40F120202D0
:1002B00070900315800D900319800890031D800332
:1002C000900321135003A380FAE49322F590C2B067
:1002D000C2B1D2B251E6C2B222F590D2B0C2B1D20E
:1002E000B251E6C2B222D2D27E0A7F05DFFEDEFA2A
:1002F000C2D222D2D47DEB7E077FE6DFFEDEFADDBE
:10030000F6C2D422D2D37D2E7E437F94DFFEDEFA66
:10031000DDF6C2D3223738392F3435362A3132331D
:050320002D99303D2B7A
:10035000202020494E5055542054494D450020201E
:1003600020205448452054494D4500380E01068050
:10037000003A3031323334353637383941504D2038
:0D03800020202053544F5057415443480053
:00000001FF
